{
  "contractName": "CreadorContratos",
  "abi": [
    {
      "inputs": [
        {
          "internalType": "uint256",
          "name": "",
          "type": "uint256"
        }
      ],
      "name": "contracts",
      "outputs": [
        {
          "internalType": "address",
          "name": "",
          "type": "address"
        }
      ],
      "stateMutability": "view",
      "type": "function",
      "constant": true
    },
    {
      "inputs": [],
      "name": "gestor",
      "outputs": [
        {
          "internalType": "contract GestorAyV",
          "name": "",
          "type": "address"
        }
      ],
      "stateMutability": "view",
      "type": "function",
      "constant": true
    },
    {
      "inputs": [],
      "name": "state",
      "outputs": [
        {
          "internalType": "string",
          "name": "",
          "type": "string"
        }
      ],
      "stateMutability": "view",
      "type": "function",
      "constant": true
    },
    {
      "inputs": [],
      "name": "totalContracts",
      "outputs": [
        {
          "internalType": "uint256",
          "name": "",
          "type": "uint256"
        }
      ],
      "stateMutability": "view",
      "type": "function",
      "constant": true
    },
    {
      "inputs": [
        {
          "internalType": "address payable",
          "name": "S1",
          "type": "address"
        },
        {
          "internalType": "address payable",
          "name": "S2",
          "type": "address"
        }
      ],
      "name": "createContract",
      "outputs": [],
      "stateMutability": "nonpayable",
      "type": "function"
    },
    {
      "inputs": [
        {
          "internalType": "address",
          "name": "addr",
          "type": "address"
        }
      ],
      "name": "setGestorDir",
      "outputs": [],
      "stateMutability": "nonpayable",
      "type": "function"
    },
    {
      "inputs": [],
      "name": "getContractsNumber",
      "outputs": [
        {
          "internalType": "uint256",
          "name": "",
          "type": "uint256"
        }
      ],
      "stateMutability": "view",
      "type": "function",
      "constant": true
    },
    {
      "inputs": [],
      "name": "getLastContractAddress",
      "outputs": [
        {
          "internalType": "address",
          "name": "",
          "type": "address"
        }
      ],
      "stateMutability": "view",
      "type": "function",
      "constant": true
    }
  ],
  "bytecode": "0x608060405234801561001057600080fd5b50614350806100206000396000f3fe608060405234801561001057600080fd5b50600436106100885760003560e01c8063474da79a1161005b578063474da79a14610187578063a09037a9146101df578063abed2f77146101fd578063c19d93fb1461023157610088565b80631805dc0c1461008d5780632e5638f2146100c15780633c46c43c146101055780633f68c5e614610169575b600080fd5b6100956102b4565b604051808273ffffffffffffffffffffffffffffffffffffffff16815260200191505060405180910390f35b610103600480360360208110156100d757600080fd5b81019080803573ffffffffffffffffffffffffffffffffffffffff1690602001909291905050506102da565b005b6101676004803603604081101561011b57600080fd5b81019080803573ffffffffffffffffffffffffffffffffffffffff169060200190929190803573ffffffffffffffffffffffffffffffffffffffff16906020019092919050505061031e565b005b6101716104a4565b6040518082815260200191505060405180910390f35b6101b36004803603602081101561019d57600080fd5b81019080803590602001909291905050506104ad565b604051808273ffffffffffffffffffffffffffffffffffffffff16815260200191505060405180910390f35b6101e76104e9565b6040518082815260200191505060405180910390f35b6102056104ef565b604051808273ffffffffffffffffffffffffffffffffffffffff16815260200191505060405180910390f35b610239610532565b6040518080602001828103825283818151815260200191508051906020019080838360005b8381101561027957808201518184015260208101905061025e565b50505050905090810190601f1680156102a65780820380516001836020036101000a031916815260200191505b509250505060405180910390f35b600360009054906101000a900473ffffffffffffffffffffffffffffffffffffffff1681565b80600360006101000a81548173ffffffffffffffffffffffffffffffffffffffff021916908373ffffffffffffffffffffffffffffffffffffffff16021790555050565b600060405161032c906105d0565b604051809103906000f080158015610348573d6000803e3d6000fd5b50905060008190508073ffffffffffffffffffffffffffffffffffffffff16639c041ebd8585600360009054906101000a900473ffffffffffffffffffffffffffffffffffffffff166040518463ffffffff1660e01b8152600401808473ffffffffffffffffffffffffffffffffffffffff1681526020018373ffffffffffffffffffffffffffffffffffffffff1681526020018273ffffffffffffffffffffffffffffffffffffffff1681526020019350505050600060405180830381600087803b15801561041757600080fd5b505af115801561042b573d6000803e3d6000fd5b505050506001829080600181540180825580915050600190039060005260206000200160009091909190916101000a81548173ffffffffffffffffffffffffffffffffffffffff021916908373ffffffffffffffffffffffffffffffffffffffff16021790555060018054905060008190555050505050565b60008054905090565b600181815481106104ba57fe5b906000526020600020016000915054906101000a900473ffffffffffffffffffffffffffffffffffffffff1681565b60005481565b6000600180600054038154811061050257fe5b9060005260206000200160009054906101000a900473ffffffffffffffffffffffffffffffffffffffff16905090565b60028054600181600116156101000203166002900480601f0160208091040260200160405190810160405280929190818152602001828054600181600116156101000203166002900480156105c85780601f1061059d576101008083540402835291602001916105c8565b820191906000526020600020905b8154815290600101906020018083116105ab57829003601f168201915b505050505081565b613d3d806105de8339019056fe60806040526000600e556000600f5560006010556000601355600060145534801561002957600080fd5b50613d04806100396000396000f3fe6080604052600436106102715760003560e01c806388346e3a1161014f578063c9e7ae9d116100c1578063e7635c1a1161007a578063e7635c1a14610f79578063e86b387a14610fba578063eb78e32b14610fe7578063f405c6eb14611033578063fb4c535114611085578063ff347d3d146110ea57610271565b8063c9e7ae9d14610d81578063cac9a39114610dae578063ce79dd7114610e46578063d2325dec14610ed6578063d613251814610f01578063d8b3d58714610f6257610271565b80639be62465116101135780639be6246514610b765780639c041ebd14610ba3578063a350f15114610c34578063b327aee814610c75578063be56ee6514610cda578063c19d93fb14610cf157610271565b806388346e3a146109ba57806388909f40146109fe5780638b238cf214610a565780638e3cfbf414610a6d57806394eee6b114610a9857610271565b806332341180116101e85780634c8f91df116101ac5780634c8f91df14610880578063514367b0146108e157806365cc4d251461094857806366847d0d1461097557806367afce741461098c57806375f4c8c7146109a357610271565b80633234118014610731578063337435ae1461075c578063390ac235146107c157806345a4340a146107cb578063484f19651461087657610271565b80631d2414711161023a5780631d2414711461041a5780632482288f146104e257806328906b071461050d5780632d4055bc146105eb5780632e5638f2146106025780632f93c5501461065357610271565b80623738841461027657806304ac2b27146103545780630baf2e47146103815780631805dc0c146103ac5780631c5e90d2146103ed575b600080fd5b34801561028257600080fd5b5061033c6004803603602081101561029957600080fd5b81019080803590602001906401000000008111156102b657600080fd5b8201836020820111156102c857600080fd5b803590602001918460018302840111640100000000831117156102ea57600080fd5b91908080601f016020809104026020016040519081016040528093929190818152602001838380828437600081840152601f19601f8201169050808301925050505050505091929192905050506110f4565b60405180821515815260200191505060405180910390f35b34801561036057600080fd5b5061036961112a565b60405180821515815260200191505060405180910390f35b34801561038d57600080fd5b5061039661113d565b6040518082815260200191505060405180910390f35b3480156103b857600080fd5b506103c1611143565b604051808273ffffffffffffffffffffffffffffffffffffffff16815260200191505060405180910390f35b3480156103f957600080fd5b50610402611169565b60405180821515815260200191505060405180910390f35b34801561042657600080fd5b506104e06004803603602081101561043d57600080fd5b810190808035906020019064010000000081111561045a57600080fd5b82018360208201111561046c57600080fd5b8035906020019184600183028401116401000000008311171561048e57600080fd5b91908080601f016020809104026020016040519081016040528093929190818152602001838380828437600081840152601f19601f82011690508083019250505050505050919291929050505061117c565b005b3480156104ee57600080fd5b506104f76115b4565b6040518082815260200191505060405180910390f35b34801561051957600080fd5b506105d36004803603602081101561053057600080fd5b810190808035906020019064010000000081111561054d57600080fd5b82018360208201111561055f57600080fd5b8035906020019184600183028401116401000000008311171561058157600080fd5b91908080601f016020809104026020016040519081016040528093929190818152602001838380828437600081840152601f19601f8201169050808301925050505050505091929192905050506115ba565b60405180821515815260200191505060405180910390f35b3480156105f757600080fd5b506106006115f0565b005b34801561060e57600080fd5b506106516004803603602081101561062557600080fd5b81019080803573ffffffffffffffffffffffffffffffffffffffff169060200190929190505050611753565b005b34801561065f57600080fd5b506107196004803603602081101561067657600080fd5b810190808035906020019064010000000081111561069357600080fd5b8201836020820111156106a557600080fd5b803590602001918460018302840111640100000000831117156106c757600080fd5b91908080601f016020809104026020016040519081016040528093929190818152602001838380828437600081840152601f19601f820116905080830192505050505050509192919290505050611797565b60405180821515815260200191505060405180910390f35b34801561073d57600080fd5b506107466117cd565b6040518082815260200191505060405180910390f35b34801561076857600080fd5b506107bf6004803603606081101561077f57600080fd5b8101908080359060200190929190803573ffffffffffffffffffffffffffffffffffffffff169060200190929190803590602001909291905050506117d3565b005b6107c9611a36565b005b3480156107d757600080fd5b506107e0611ae4565b6040518080602001851515815260200184151581526020018315158152602001828103825286818151815260200191508051906020019080838360005b8381101561083857808201518184015260208101905061081d565b50505050905090810190601f1680156108655780820380516001836020036101000a031916815260200191505b509550505050505060405180910390f35b61087e611c7b565b005b34801561088c57600080fd5b50610895611e7c565b604051808681526020018581526020018473ffffffffffffffffffffffffffffffffffffffff168152602001831515815260200182151581526020019550505050505060405180910390f35b3480156108ed57600080fd5b506109306004803603602081101561090457600080fd5b81019080803573ffffffffffffffffffffffffffffffffffffffff169060200190929190505050611f56565b60405180821515815260200191505060405180910390f35b34801561095457600080fd5b5061095d611f76565b60405180821515815260200191505060405180910390f35b34801561098157600080fd5b5061098a611f89565b005b34801561099857600080fd5b506109a1612428565b005b3480156109af57600080fd5b506109b8612431565b005b3480156109c657600080fd5b506109cf612647565b604051808515158152602001848152602001831515815260200182815260200194505050505060405180910390f35b610a5460048036036060811015610a1457600080fd5b8101908080359060200190929190803573ffffffffffffffffffffffffffffffffffffffff16906020019092919080359060200190929190505050612697565b005b348015610a6257600080fd5b50610a6b612976565b005b348015610a7957600080fd5b50610a82612b5a565b6040518082815260200191505060405180910390f35b348015610aa457600080fd5b50610b5e60048036036020811015610abb57600080fd5b8101908080359060200190640100000000811115610ad857600080fd5b820183602082011115610aea57600080fd5b80359060200191846001830284011164010000000083111715610b0c57600080fd5b91908080601f016020809104026020016040519081016040528093929190818152602001838380828437600081840152601f19601f820116905080830192505050505050509192919290505050612b60565b60405180821515815260200191505060405180910390f35b348015610b8257600080fd5b50610b8b612b96565b60405180821515815260200191505060405180910390f35b348015610baf57600080fd5b50610c3260048036036060811015610bc657600080fd5b81019080803573ffffffffffffffffffffffffffffffffffffffff169060200190929190803573ffffffffffffffffffffffffffffffffffffffff169060200190929190803573ffffffffffffffffffffffffffffffffffffffff169060200190929190505050612ba9565b005b348015610c4057600080fd5b50610c49612f80565b604051808273ffffffffffffffffffffffffffffffffffffffff16815260200191505060405180910390f35b348015610c8157600080fd5b50610cae60048036036020811015610c9857600080fd5b8101908080359060200190929190505050612fa6565b604051808273ffffffffffffffffffffffffffffffffffffffff16815260200191505060405180910390f35b348015610ce657600080fd5b50610cef612fe2565b005b348015610cfd57600080fd5b50610d06613023565b6040518080602001828103825283818151815260200191508051906020019080838360005b83811015610d46578082015181840152602081019050610d2b565b50505050905090810190601f168015610d735780820380516001836020036101000a031916815260200191505b509250505060405180910390f35b348015610d8d57600080fd5b50610d966130c1565b60405180821515815260200191505060405180910390f35b348015610dba57600080fd5b50610dc36130d4565b604051808573ffffffffffffffffffffffffffffffffffffffff1681526020018473ffffffffffffffffffffffffffffffffffffffff1681526020018373ffffffffffffffffffffffffffffffffffffffff1681526020018273ffffffffffffffffffffffffffffffffffffffff16815260200194505050505060405180910390f35b348015610e5257600080fd5b50610e5b613174565b6040518080602001828103825283818151815260200191508051906020019080838360005b83811015610e9b578082015181840152602081019050610e80565b50505050905090810190601f168015610ec85780820380516001836020036101000a031916815260200191505b509250505060405180910390f35b348015610ee257600080fd5b50610eeb613212565b6040518082815260200191505060405180910390f35b348015610f0d57600080fd5b50610f16613218565b604051808681526020018581526020018473ffffffffffffffffffffffffffffffffffffffff168152602001831515815260200182151581526020019550505050505060405180910390f35b348015610f6e57600080fd5b50610f776132f2565b005b348015610f8557600080fd5b50610f8e6132fb565b604051808273ffffffffffffffffffffffffffffffffffffffff16815260200191505060405180910390f35b348015610fc657600080fd5b50610fcf613321565b60405180821515815260200191505060405180910390f35b61103160048036036080811015610ffd57600080fd5b8101908080359060200190929190803590602001909291908035906020019092919080359060200190929190505050613334565b005b34801561103f57600080fd5b50611048613677565b6040518087815260200186815260200185815260200184815260200183151581526020018215158152602001965050505050505060405180910390f35b34801561109157600080fd5b506110be600480360360208110156110a857600080fd5b8101908080359060200190929190505050613738565b604051808273ffffffffffffffffffffffffffffffffffffffff16815260200191505060405180910390f35b6110f2613774565b005b601c818051602081018201805184825260208301602085012081835280955050505050506000915054906101000a900460ff1681565b600b60019054906101000a900460ff1681565b600e5481565b600860009054906101000a900473ffffffffffffffffffffffffffffffffffffffff1681565b600b60029054906101000a900460ff1681565b8060099080519060200190611192929190613b46565b50600660009054906101000a900473ffffffffffffffffffffffffffffffffffffffff1673ffffffffffffffffffffffffffffffffffffffff163373ffffffffffffffffffffffffffffffffffffffff1614156112f3576001601b60405180807f637573746f6469610000000000000000000000000000000000000000000000008152506008019050908152602001604051809103902060006101000a81548160ff0219169083151502179055506000601c60405180807f637573746f6469610000000000000000000000000000000000000000000000008152506008019050908152602001604051809103902060006101000a81548160ff0219169083151502179055506000601d60405180807f637573746f6469610000000000000000000000000000000000000000000000008152506008019050908152602001604051809103902060006101000a81548160ff0219169083151502179055506115b1565b600760009054906101000a900473ffffffffffffffffffffffffffffffffffffffff1673ffffffffffffffffffffffffffffffffffffffff163373ffffffffffffffffffffffffffffffffffffffff161415611453576000601b60405180807f637573746f6469610000000000000000000000000000000000000000000000008152506008019050908152602001604051809103902060006101000a81548160ff0219169083151502179055506001601c60405180807f637573746f6469610000000000000000000000000000000000000000000000008152506008019050908152602001604051809103902060006101000a81548160ff0219169083151502179055506000601d60405180807f637573746f6469610000000000000000000000000000000000000000000000008152506008019050908152602001604051809103902060006101000a81548160ff0219169083151502179055506115b0565b600160009054906101000a900473ffffffffffffffffffffffffffffffffffffffff1673ffffffffffffffffffffffffffffffffffffffff163373ffffffffffffffffffffffffffffffffffffffff1614156115af576000601b60405180807f637573746f6469610000000000000000000000000000000000000000000000008152506008019050908152602001604051809103902060006101000a81548160ff0219169083151502179055506000601c60405180807f637573746f6469610000000000000000000000000000000000000000000000008152506008019050908152602001604051809103902060006101000a81548160ff0219169083151502179055506001601d60405180807f637573746f6469610000000000000000000000000000000000000000000000008152506008019050908152602001604051809103902060006101000a81548160ff0219169083151502179055505b5b5b50565b600c5481565b601d818051602081018201805184825260208301602085012081835280955050505050506000915054906101000a900460ff1681565b600660009054906101000a900473ffffffffffffffffffffffffffffffffffffffff1673ffffffffffffffffffffffffffffffffffffffff163373ffffffffffffffffffffffffffffffffffffffff1614156116a2576001601b60405180807f70726f70696564616400000000000000000000000000000000000000000000008152506009019050908152602001604051809103902060006101000a81548160ff021916908315150217905550611751565b600760009054906101000a900473ffffffffffffffffffffffffffffffffffffffff1673ffffffffffffffffffffffffffffffffffffffff163373ffffffffffffffffffffffffffffffffffffffff161415611750576001601c60405180807f70726f70696564616400000000000000000000000000000000000000000000008152506009019050908152602001604051809103902060006101000a81548160ff0219169083151502179055505b5b565b80600860006101000a81548173ffffffffffffffffffffffffffffffffffffffff021916908373ffffffffffffffffffffffffffffffffffffffff16021790555050565b601e818051602081018201805184825260208301602085012081835280955050505050506000915054906101000a900460ff1681565b60165481565b826013819055508060148190555081601560006101000a81548173ffffffffffffffffffffffffffffffffffffffff021916908373ffffffffffffffffffffffffffffffffffffffff160217905550600660009054906101000a900473ffffffffffffffffffffffffffffffffffffffff1673ffffffffffffffffffffffffffffffffffffffff163373ffffffffffffffffffffffffffffffffffffffff16141561192b576001601b60405180807f70726f70696564616400000000000000000000000000000000000000000000008152506009019050908152602001604051809103902060006101000a81548160ff0219169083151502179055506000601c60405180807f70726f70696564616400000000000000000000000000000000000000000000008152506009019050908152602001604051809103902060006101000a81548160ff021916908315150217905550611a31565b600760009054906101000a900473ffffffffffffffffffffffffffffffffffffffff1673ffffffffffffffffffffffffffffffffffffffff163373ffffffffffffffffffffffffffffffffffffffff161415611a30576000601b60405180807f70726f70696564616400000000000000000000000000000000000000000000008152506009019050908152602001604051809103902060006101000a81548160ff0219169083151502179055506001601c60405180807f70726f70696564616400000000000000000000000000000000000000000000008152506009019050908152602001604051809103902060006101000a81548160ff0219169083151502179055505b5b505050565b601160009054906101000a900473ffffffffffffffffffffffffffffffffffffffff1673ffffffffffffffffffffffffffffffffffffffff166108fc349081150290604051600060405180830381858888f19350505050158015611a9e573d6000803e3d6000fd5b5060016018603c80601254420381611ab257fe5b0481611aba57fe5b0481611ac257fe5b041015611adb576001600e600082825403925050819055505b42601281905550565b606060008060006009601b60405180807f637573746f6469610000000000000000000000000000000000000000000000008152506008019050908152602001604051809103902060009054906101000a900460ff16601c60405180807f637573746f6469610000000000000000000000000000000000000000000000008152506008019050908152602001604051809103902060009054906101000a900460ff16601d60405180807f637573746f6469610000000000000000000000000000000000000000000000008152506008019050908152602001604051809103902060009054906101000a900460ff16838054600181600116156101000203166002900480601f016020809104026020016040519081016040528092919081815260200182805460018160011615610100020316600290048015611c665780601f10611c3b57610100808354040283529160200191611c66565b820191906000526020600020905b815481529060010190602001808311611c4957829003601f168201915b50505050509350935093509350935090919293565b601160009054906101000a900473ffffffffffffffffffffffffffffffffffffffff1673ffffffffffffffffffffffffffffffffffffffff163373ffffffffffffffffffffffffffffffffffffffff161415611d19573373ffffffffffffffffffffffffffffffffffffffff166108fc349081150290604051600060405180830381858888f19350505050158015611d17573d6000803e3d6000fd5b505b600660009054906101000a900473ffffffffffffffffffffffffffffffffffffffff1673ffffffffffffffffffffffffffffffffffffffff163373ffffffffffffffffffffffffffffffffffffffff161415611dcb576001601b60405180807f6d616e7574656e63696f6e000000000000000000000000000000000000000000815250600b019050908152602001604051809103902060006101000a81548160ff021916908315150217905550611e7a565b600760009054906101000a900473ffffffffffffffffffffffffffffffffffffffff1673ffffffffffffffffffffffffffffffffffffffff163373ffffffffffffffffffffffffffffffffffffffff161415611e79576001601c60405180807f6d616e7574656e63696f6e000000000000000000000000000000000000000000815250600b019050908152602001604051809103902060006101000a81548160ff0219169083151502179055505b5b565b6000806000806000601354601454601560009054906101000a900473ffffffffffffffffffffffffffffffffffffffff16601b60405180807f70726f70696564616400000000000000000000000000000000000000000000008152506009019050908152602001604051809103902060009054906101000a900460ff16601c60405180807f70726f70696564616400000000000000000000000000000000000000000000008152506009019050908152602001604051809103902060009054906101000a900460ff16945094509450945094509091929394565b60046020528060005260406000206000915054906101000a900460ff1681565b600b60009054906101000a900460ff1681565b601b60405180807f637573746f6469610000000000000000000000000000000000000000000000008152506008019050908152602001604051809103902060009054906101000a900460ff1680156120295750601c60405180807f637573746f6469610000000000000000000000000000000000000000000000008152506008019050908152602001604051809103902060009054906101000a900460ff165b801561207d5750601d60405180807f637573746f6469610000000000000000000000000000000000000000000000008152506008019050908152602001604051809103902060009054906101000a900460ff165b80156120d15750601b60405180807f6d616e7574656e63696f6e000000000000000000000000000000000000000000815250600b019050908152602001604051809103902060009054906101000a900460ff165b80156121255750601c60405180807f6d616e7574656e63696f6e000000000000000000000000000000000000000000815250600b019050908152602001604051809103902060009054906101000a900460ff165b80156121795750601b60405180807f70726f70696564616400000000000000000000000000000000000000000000008152506009019050908152602001604051809103902060009054906101000a900460ff165b80156121cd5750601c60405180807f70726f70696564616400000000000000000000000000000000000000000000008152506009019050908152602001604051809103902060009054906101000a900460ff165b612222576040517f08c379a0000000000000000000000000000000000000000000000000000000008152600401808060200182810382526026815260200180613ca96026913960400191505060405180910390fd5b6001600b60056101000a81548160ff021916908315150217905550600160009054906101000a900473ffffffffffffffffffffffffffffffffffffffff1673ffffffffffffffffffffffffffffffffffffffff166108fc601a549081150290604051600060405180830381858888f193505050501580156122a7573d6000803e3d6000fd5b50600260009054906101000a900473ffffffffffffffffffffffffffffffffffffffff1673ffffffffffffffffffffffffffffffffffffffff166108fc6019549081150290604051600060405180830381858888f19350505050158015612312573d6000803e3d6000fd5b5042600c8190555042601681905550600860009054906101000a900473ffffffffffffffffffffffffffffffffffffffff1673ffffffffffffffffffffffffffffffffffffffff1663eacf598e600160009054906101000a900473ffffffffffffffffffffffffffffffffffffffff16600260009054906101000a900473ffffffffffffffffffffffffffffffffffffffff166040518363ffffffff1660e01b8152600401808373ffffffffffffffffffffffffffffffffffffffff1681526020018273ffffffffffffffffffffffffffffffffffffffff16815260200192505050600060405180830381600087803b15801561240e57600080fd5b505af1158015612422573d6000803e3d6000fd5b50505050565b42600d81905550565b600660009054906101000a900473ffffffffffffffffffffffffffffffffffffffff1673ffffffffffffffffffffffffffffffffffffffff163373ffffffffffffffffffffffffffffffffffffffff1614156124e3576001601b60405180807f637573746f6469610000000000000000000000000000000000000000000000008152506008019050908152602001604051809103902060006101000a81548160ff021916908315150217905550612645565b600760009054906101000a900473ffffffffffffffffffffffffffffffffffffffff1673ffffffffffffffffffffffffffffffffffffffff163373ffffffffffffffffffffffffffffffffffffffff161415612595576001601c60405180807f637573746f6469610000000000000000000000000000000000000000000000008152506008019050908152602001604051809103902060006101000a81548160ff021916908315150217905550612644565b600160009054906101000a900473ffffffffffffffffffffffffffffffffffffffff1673ffffffffffffffffffffffffffffffffffffffff163373ffffffffffffffffffffffffffffffffffffffff161415612643576001601d60405180807f637573746f6469610000000000000000000000000000000000000000000000008152506008019050908152602001604051809103902060006101000a81548160ff0219169083151502179055505b5b5b565b600080600080600b60059054906101000a900460ff16600c54600d54600c54106018603c80600d5442038161267857fe5b048161268057fe5b048161268857fe5b04935093509350935090919293565b82600f819055508060108190555081601160006101000a81548173ffffffffffffffffffffffffffffffffffffffff021916908373ffffffffffffffffffffffffffffffffffffffff1602179055508173ffffffffffffffffffffffffffffffffffffffff163373ffffffffffffffffffffffffffffffffffffffff161415612762573373ffffffffffffffffffffffffffffffffffffffff166108fc349081150290604051600060405180830381858888f19350505050158015612760573d6000803e3d6000fd5b505b600660009054906101000a900473ffffffffffffffffffffffffffffffffffffffff1673ffffffffffffffffffffffffffffffffffffffff163373ffffffffffffffffffffffffffffffffffffffff16141561286b576001601b60405180807f6d616e7574656e63696f6e000000000000000000000000000000000000000000815250600b019050908152602001604051809103902060006101000a81548160ff0219169083151502179055506000601c60405180807f6d616e7574656e63696f6e000000000000000000000000000000000000000000815250600b019050908152602001604051809103902060006101000a81548160ff021916908315150217905550612971565b600760009054906101000a900473ffffffffffffffffffffffffffffffffffffffff1673ffffffffffffffffffffffffffffffffffffffff163373ffffffffffffffffffffffffffffffffffffffff161415612970576000601b60405180807f6d616e7574656e63696f6e000000000000000000000000000000000000000000815250600b019050908152602001604051809103902060006101000a81548160ff0219169083151502179055506001601c60405180807f6d616e7574656e63696f6e000000000000000000000000000000000000000000815250600b019050908152602001604051809103902060006101000a81548160ff0219169083151502179055505b5b505050565b600660009054906101000a900473ffffffffffffffffffffffffffffffffffffffff1673ffffffffffffffffffffffffffffffffffffffff163373ffffffffffffffffffffffffffffffffffffffff161480612a1f5750600760009054906101000a900473ffffffffffffffffffffffffffffffffffffffff1673ffffffffffffffffffffffffffffffffffffffff163373ffffffffffffffffffffffffffffffffffffffff16145b8015612a4c5750601e6018603c80601254420381612a3957fe5b0481612a4157fe5b0481612a4957fe5b04105b612a5557600080fd5b600660009054906101000a900473ffffffffffffffffffffffffffffffffffffffff1673ffffffffffffffffffffffffffffffffffffffff16601560009054906101000a900473ffffffffffffffffffffffffffffffffffffffff1673ffffffffffffffffffffffffffffffffffffffff1614612af457600660009054906101000a900473ffffffffffffffffffffffffffffffffffffffff16612b18565b600760009054906101000a900473ffffffffffffffffffffffffffffffffffffffff165b601560006101000a81548173ffffffffffffffffffffffffffffffffffffffff021916908373ffffffffffffffffffffffffffffffffffffffff160217905550565b60125481565b601b818051602081018201805184825260208301602085012081835280955050505050506000915054906101000a900460ff1681565b600b60039054906101000a900460ff1681565b82600660006101000a81548173ffffffffffffffffffffffffffffffffffffffff021916908373ffffffffffffffffffffffffffffffffffffffff16021790555081600760006101000a81548173ffffffffffffffffffffffffffffffffffffffff021916908373ffffffffffffffffffffffffffffffffffffffff16021790555080600860006101000a81548173ffffffffffffffffffffffffffffffffffffffff021916908373ffffffffffffffffffffffffffffffffffffffff1602179055506000601b60405180807f7061727469636970616e74730000000000000000000000000000000000000000815250600c019050908152602001604051809103902060006101000a81548160ff0219169083151502179055506000601c60405180807f7061727469636970616e74730000000000000000000000000000000000000000815250600c019050908152602001604051809103902060006101000a81548160ff0219169083151502179055506000601b60405180807f637573746f6469610000000000000000000000000000000000000000000000008152506008019050908152602001604051809103902060006101000a81548160ff0219169083151502179055506000601c60405180807f637573746f6469610000000000000000000000000000000000000000000000008152506008019050908152602001604051809103902060006101000a81548160ff0219169083151502179055506000601d60405180807f637573746f6469610000000000000000000000000000000000000000000000008152506008019050908152602001604051809103902060006101000a81548160ff0219169083151502179055506000601b60405180807f6d616e7574656e63696f6e000000000000000000000000000000000000000000815250600b019050908152602001604051809103902060006101000a81548160ff0219169083151502179055506000601c60405180807f6d616e7574656e63696f6e000000000000000000000000000000000000000000815250600b019050908152602001604051809103902060006101000a81548160ff0219169083151502179055506000601b60405180807f70726f70696564616400000000000000000000000000000000000000000000008152506009019050908152602001604051809103902060006101000a81548160ff0219169083151502179055506000601c60405180807f70726f70696564616400000000000000000000000000000000000000000000008152506009019050908152602001604051809103902060006101000a81548160ff021916908315150217905550505050565b600260009054906101000a900473ffffffffffffffffffffffffffffffffffffffff1681565b60008181548110612fb357fe5b906000526020600020016000915054906101000a900473ffffffffffffffffffffffffffffffffffffffff1681565b601e6018603c80601254420381612ff557fe5b0481612ffd57fe5b048161300557fe5b041161301057600080fd5b6001600e60008282540192505081905550565b600a8054600181600116156101000203166002900480601f0160208091040260200160405190810160405280929190818152602001828054600181600116156101000203166002900480156130b95780601f1061308e576101008083540402835291602001916130b9565b820191906000526020600020905b81548152906001019060200180831161309c57829003601f168201915b505050505081565b600b60059054906101000a900460ff1681565b600080600080600660009054906101000a900473ffffffffffffffffffffffffffffffffffffffff16600760009054906101000a900473ffffffffffffffffffffffffffffffffffffffff16600160009054906101000a900473ffffffffffffffffffffffffffffffffffffffff16600260009054906101000a900473ffffffffffffffffffffffffffffffffffffffff16935093509350935090919293565b60098054600181600116156101000203166002900480601f01602080910402602001604051908101604052809291908181526020018280546001816001161561010002031660029004801561320a5780601f106131df5761010080835404028352916020019161320a565b820191906000526020600020905b8154815290600101906020018083116131ed57829003601f168201915b505050505081565b600d5481565b6000806000806000600f54601054601160009054906101000a900473ffffffffffffffffffffffffffffffffffffffff16601b60405180807f6d616e7574656e63696f6e000000000000000000000000000000000000000000815250600b019050908152602001604051809103902060009054906101000a900460ff16601c60405180807f6d616e7574656e63696f6e000000000000000000000000000000000000000000815250600b019050908152602001604051809103902060009054906101000a900460ff16945094509450945094509091929394565b42600c81905550565b600160009054906101000a900473ffffffffffffffffffffffffffffffffffffffff1681565b600b60049054906101000a900460ff1681565b600660009054906101000a900473ffffffffffffffffffffffffffffffffffffffff1673ffffffffffffffffffffffffffffffffffffffff163373ffffffffffffffffffffffffffffffffffffffff1614156134c6576001601b60405180807f7061727469636970616e74730000000000000000000000000000000000000000815250600c019050908152602001604051809103902060006101000a81548160ff0219169083151502179055506000601c60405180807f7061727469636970616e74730000000000000000000000000000000000000000815250600c019050908152602001604051809103902060006101000a81548160ff0219169083151502179055506000601a546019540111156134c157600760009054906101000a900473ffffffffffffffffffffffffffffffffffffffff1673ffffffffffffffffffffffffffffffffffffffff166108fc6002601a54601954018161349357fe5b049081150290604051600060405180830381858888f193505050501580156134bf573d6000803e3d6000fd5b505b613655565b600760009054906101000a900473ffffffffffffffffffffffffffffffffffffffff1673ffffffffffffffffffffffffffffffffffffffff163373ffffffffffffffffffffffffffffffffffffffff161415613654576000601b60405180807f7061727469636970616e74730000000000000000000000000000000000000000815250600c019050908152602001604051809103902060006101000a81548160ff0219169083151502179055506001601c60405180807f7061727469636970616e74730000000000000000000000000000000000000000815250600c019050908152602001604051809103902060006101000a81548160ff0219169083151502179055506000601a5460195401111561365357600660009054906101000a900473ffffffffffffffffffffffffffffffffffffffff1673ffffffffffffffffffffffffffffffffffffffff166108fc6002601a54601954018161362557fe5b049081150290604051600060405180830381858888f19350505050158015613651573d6000803e3d6000fd5b505b5b5b82601781905550836018819055508060198190555081601a8190555050505050565b600080600080600080601754601854601954601a54601b60405180807f7061727469636970616e74730000000000000000000000000000000000000000815250600c019050908152602001604051809103902060009054906101000a900460ff16601c60405180807f7061727469636970616e74730000000000000000000000000000000000000000815250600c019050908152602001604051809103902060009054906101000a900460ff16955095509550955095509550909192939495565b6003818154811061374557fe5b906000526020600020016000915054906101000a900473ffffffffffffffffffffffffffffffffffffffff1681565b600660009054906101000a900473ffffffffffffffffffffffffffffffffffffffff1673ffffffffffffffffffffffffffffffffffffffff163373ffffffffffffffffffffffffffffffffffffffff161415613826576001601b60405180807f7061727469636970616e74730000000000000000000000000000000000000000815250600c019050908152602001604051809103902060006101000a81548160ff0219169083151502179055506138d5565b600760009054906101000a900473ffffffffffffffffffffffffffffffffffffffff1673ffffffffffffffffffffffffffffffffffffffff163373ffffffffffffffffffffffffffffffffffffffff1614156138d4576001601c60405180807f7061727469636970616e74730000000000000000000000000000000000000000815250600c019050908152602001604051809103902060006101000a81548160ff0219169083151502179055505b5b600860009054906101000a900473ffffffffffffffffffffffffffffffffffffffff1673ffffffffffffffffffffffffffffffffffffffff166306220269601754601854601954601a546040518563ffffffff1660e01b81526004018085815260200184815260200183815260200182815260200194505050505060006040518083038186803b15801561396857600080fd5b505afa15801561397c573d6000803e3d6000fd5b505050506040513d6000823e3d601f19601f8201168201806040525060208110156139a657600080fd5b81019080805160405193929190846401000000008211156139c657600080fd5b838201915060208201858111156139dc57600080fd5b82518660208202830111640100000000821117156139f957600080fd5b8083526020830192505050908051906020019060200280838360005b83811015613a30578082015181840152602081019050613a15565b5050505090500160405250505060009080519060200190613a52929190613bc6565b5060008081548110613a6057fe5b9060005260206000200160009054906101000a900473ffffffffffffffffffffffffffffffffffffffff16600160006101000a81548173ffffffffffffffffffffffffffffffffffffffff021916908373ffffffffffffffffffffffffffffffffffffffff1602179055506000600181548110613ad957fe5b9060005260206000200160009054906101000a900473ffffffffffffffffffffffffffffffffffffffff16600260006101000a81548173ffffffffffffffffffffffffffffffffffffffff021916908373ffffffffffffffffffffffffffffffffffffffff160217905550565b828054600181600116156101000203166002900490600052602060002090601f016020900481019282601f10613b8757805160ff1916838001178555613bb5565b82800160010185558215613bb5579182015b82811115613bb4578251825591602001919060010190613b99565b5b509050613bc29190613c50565b5090565b828054828255906000526020600020908101928215613c3f579160200282015b82811115613c3e5782518260006101000a81548173ffffffffffffffffffffffffffffffffffffffff021916908373ffffffffffffffffffffffffffffffffffffffff16021790555091602001919060010190613be6565b5b509050613c4c9190613c6d565b5090565b5b80821115613c69576000816000905550600101613c51565b5090565b5b80821115613ca457600081816101000a81549073ffffffffffffffffffffffffffffffffffffffff021916905550600101613c6e565b509056fe4e6f2073652068616e20616365707461646f20746f646173206c617320636c617573756c6173a26469706673582212209315ae8d2ab7f7337e51e6eb922f0122f8f998be9b7e2ca4322c394b89847fc564736f6c634300060c0033a2646970667358221220fe4aba41e60faf87afc06ac65de7a716920d3b3a0c19ac29eb305a020328a9e664736f6c634300060c0033",
  "source": "pragma solidity >0.6.0;\n\nimport \"./AcuerdoInformal.sol\";\nimport \"./GestorAyV.sol\";\n\ncontract CreadorContratos {\n\n    uint public totalContracts;\n    address[] public contracts;\n    string public state;\n    GestorAyV public gestor;\n   \n    \n\n    //funcion get Contract By account S1 y S2\n    function createContract (address payable S1, address payable S2) public{\n        \n        address newContract = address(new AcuerdoInformal());\n        AcuerdoInformal instance = AcuerdoInformal(newContract);\n        instance.create(S1,S2,gestor);\n        contracts.push(newContract);\n        totalContracts = contracts.length;\n       \n        \n    } \n\n    function setGestorDir(address addr) public {\n        gestor = GestorAyV(addr);\n    }\n    function getContractsNumber() public view returns (uint) {\n        return totalContracts;\n    }\n\n    function getLastContractAddress() public view returns (address) {\n        return contracts[totalContracts-1];\n    }\n\n   /* function getTrato(address contractAddress) public view returns (string memory) {\n        AcuerdoInformal instance = AcuerdoInformal(contractAddress);\n        require (msg.sender == instance.getS1() || msg.sender == instance.getS2(), 'You are not in this contract or you dont init session!');\n        return instance.trato();\n    }\n\n    function getFechaAcuerdo(address contractAddress) public view returns (string memory) {\n        AcuerdoInformal instance = AcuerdoInformal(contractAddress);\n        //require (msg.sender == instance.getS1() || msg.sender == instance.getS2(), 'You are not in this contract or you don't init session!');\n        return instance.getFechaAcuerdo();\n    }\n\n    function getFechaDesacuerdo(address contractAddress) public view returns (string memory) {\n        AcuerdoInformal instance = AcuerdoInformal(contractAddress);\n        //require (msg.sender == instance.getS1() || msg.sender == instance.getS2(), 'You are not in this contract or you don't init session!');\n        return instance.getFechaDesacuerdo();\n    }\n\n    function getAcceptS1(address contractAddress) public returns (bool) {\n        AcuerdoInformal instance = AcuerdoInformal(contractAddress);\n        //require (msg.sender == instance.getS1() || msg.sender == instance.getS2(), 'You are not in this contract or you don't init session!');\n        return instance.getAcceptS1();\n    }\n\n     function getAcceptS2(address contractAddress) public returns (bool) {\n        AcuerdoInformal instance = AcuerdoInformal(contractAddress);\n        require (msg.sender == instance.getS2(), 'You are not in this contract or you dont init session!');\n        return instance.getAcceptS2();\n    }\n\n    function getVistoS1(address contractAddress) public returns (bool) {\n        AcuerdoInformal instance = AcuerdoInformal(contractAddress);\n        //require (msg.sender == instance.getS1() || msg.sender == instance.getS2(), 'You are not in this contract or you don't init session!');\n        return instance.getVistoS1();\n    }\n\n    function getVistoS2(address contractAddress) public returns (bool) {\n        AcuerdoInformal instance = AcuerdoInformal(contractAddress);\n        //require (msg.sender == instance.getS1() || msg.sender == instance.getS2(), 'You are not in this contract or you don't init session!');\n        return instance.getVistoS2();\n    }\n\n    function getAcuerdo(address contractAddress) public returns (bool) {\n        AcuerdoInformal instance = AcuerdoInformal(contractAddress);\n        //require (msg.sender == instance.getS1() || msg.sender == instance.getS2(), 'You are not in this contract or you don't init session!');\n        return instance.getAcuerdo();\n    }\n\n    function setTrato (address contractAddress, string memory _trato) public { \n        //require (msg.sender == s1 || msg.sender == s2, 'You are not in this contract or you don't init session!');    \n        AcuerdoInformal instance = AcuerdoInformal(contractAddress);\n        //require (msg.sender == instance.getS1() || msg.sender == instance.getS2(), 'You are not in this contract or you don't init session!');\n        instance.setTrato(_trato); \n        state = instance.retrieveOldState();                      \n    }\n\n    function setAccept_p1_s1 (address contractAddress) public {\n        AcuerdoInformal instance = AcuerdoInformal(contractAddress);\n        //require (msg.sender == instance.getS1(), 'You are not in this contract or you don't init session!');\n         instance.setAccept_p1_s1();    \n    }     \n\n    function setAccept_p1_s2 (address contractAddress) public {\n        //require (msg.sender == s2, 'You are not the correct person or you don't init session!');\n        AcuerdoInformal instance = AcuerdoInformal(contractAddress);\n        //require (msg.sender == instance.getS2(), 'You are not in this contract or you don't init session!');\n         instance.setAccept_p1_s2();\n    }\n\n    function setVistoS1 (address contractAddress, string memory _fecha) public {\n        AcuerdoInformal instance = AcuerdoInformal(contractAddress);\n        //require (msg.sender == instance.getS1() , 'You are not in this contract or you don't init session!');\n         instance.setVistoS1(_fecha);\n        \n    }\n\n    function setVistoS2 (address contractAddress, string memory _fecha) public {\n        AcuerdoInformal instance = AcuerdoInformal(contractAddress);\n        //require (msg.sender == instance.getS2.call(), 'You are not in this contract or you don't init session!');\n        instance.setVistoS2(_fecha);\n        \n    }\n\n    function desaceptS1 (address contractAddress) public {\n        AcuerdoInformal instance = AcuerdoInformal(contractAddress);\n        //require (msg.sender == instance.getS1(), 'You are not in this contract or you don't init session!');\n        instance.desaceptS1();             \n    }\n\n    function desaceptS2 (address contractAddress) public {\n        AcuerdoInformal instance = AcuerdoInformal(contractAddress);\n        //require (msg.sender == instance.getS2(), 'You are not in this contract or you don't init session!');\n        instance.desaceptS2();\n    }\n\n    function retrieveOldState(address contractAddress) public {  \n        AcuerdoInformal instance = AcuerdoInformal(contractAddress);\n        //require (msg.sender == instance.getS1() || msg.sender == instance.getS2(), 'You are not in this contract or you don't init session!');\n        state = instance.retrieveOldState();\n    }\n\n    function retrieveStateByBlock() public view returns (string memory) {  \n        return state;\n    }*/\n}",
  "sourcePath": "/home/edgar/blockchain/SmartContractDemo/TFM/contracts/CreadorContratos.sol",
  "compiler": {
    "name": "solc",
    "version": "0.6.12+commit.27d51765.Emscripten.clang"
  },
  "schemaVersion": "3.0.23",
  "updatedAt": "2020-08-16T18:23:28.663Z",
  "networkType": "ethereum",
  "devdoc": {
    "kind": "dev",
    "methods": {},
    "version": 1
  },
  "userdoc": {
    "kind": "user",
    "methods": {},
    "version": 1
  }
}