{
  "contractName": "GestorAyV",
  "abi": [
    {
      "inputs": [],
      "name": "addresTest",
      "outputs": [
        {
          "internalType": "address payable",
          "name": "",
          "type": "address"
        }
      ],
      "stateMutability": "view",
      "type": "function",
      "constant": true
    },
    {
      "inputs": [
        {
          "internalType": "address",
          "name": "",
          "type": "address"
        }
      ],
      "name": "allowedAdresses",
      "outputs": [
        {
          "internalType": "bool",
          "name": "",
          "type": "bool"
        }
      ],
      "stateMutability": "view",
      "type": "function",
      "constant": true
    },
    {
      "inputs": [
        {
          "internalType": "uint256",
          "name": "",
          "type": "uint256"
        }
      ],
      "name": "mediadoresAccts",
      "outputs": [
        {
          "internalType": "address payable",
          "name": "",
          "type": "address"
        }
      ],
      "stateMutability": "view",
      "type": "function",
      "constant": true
    },
    {
      "inputs": [
        {
          "internalType": "address",
          "name": "",
          "type": "address"
        }
      ],
      "name": "mediadoresMap",
      "outputs": [
        {
          "internalType": "address",
          "name": "addr",
          "type": "address"
        },
        {
          "internalType": "uint256",
          "name": "gananciaMax",
          "type": "uint256"
        },
        {
          "internalType": "uint256",
          "name": "gananciaMin",
          "type": "uint256"
        },
        {
          "internalType": "uint256",
          "name": "prcgAciertos",
          "type": "uint256"
        },
        {
          "internalType": "uint256",
          "name": "deposito1",
          "type": "uint256"
        },
        {
          "internalType": "uint256",
          "name": "deposito2",
          "type": "uint256"
        },
        {
          "internalType": "uint256",
          "name": "participaciones",
          "type": "uint256"
        },
        {
          "internalType": "string",
          "name": "typeParticipant",
          "type": "string"
        }
      ],
      "stateMutability": "view",
      "type": "function",
      "constant": true
    },
    {
      "inputs": [
        {
          "internalType": "uint256",
          "name": "",
          "type": "uint256"
        }
      ],
      "name": "validadoresAccts",
      "outputs": [
        {
          "internalType": "address payable",
          "name": "",
          "type": "address"
        }
      ],
      "stateMutability": "view",
      "type": "function",
      "constant": true
    },
    {
      "inputs": [
        {
          "internalType": "address",
          "name": "",
          "type": "address"
        }
      ],
      "name": "validadoresMap",
      "outputs": [
        {
          "internalType": "address",
          "name": "addr",
          "type": "address"
        },
        {
          "internalType": "uint256",
          "name": "gananciaMax",
          "type": "uint256"
        },
        {
          "internalType": "uint256",
          "name": "gananciaMin",
          "type": "uint256"
        },
        {
          "internalType": "uint256",
          "name": "prcgAciertos",
          "type": "uint256"
        },
        {
          "internalType": "uint256",
          "name": "deposito1",
          "type": "uint256"
        },
        {
          "internalType": "uint256",
          "name": "deposito2",
          "type": "uint256"
        },
        {
          "internalType": "uint256",
          "name": "participaciones",
          "type": "uint256"
        },
        {
          "internalType": "string",
          "name": "typeParticipant",
          "type": "string"
        }
      ],
      "stateMutability": "view",
      "type": "function",
      "constant": true
    },
    {
      "inputs": [
        {
          "internalType": "address",
          "name": "_addr",
          "type": "address"
        }
      ],
      "name": "setAllowedAddress",
      "outputs": [],
      "stateMutability": "nonpayable",
      "type": "function"
    },
    {
      "inputs": [
        {
          "internalType": "uint256",
          "name": "_gMax",
          "type": "uint256"
        },
        {
          "internalType": "uint256",
          "name": "_gMin",
          "type": "uint256"
        },
        {
          "internalType": "uint256",
          "name": "_dp1",
          "type": "uint256"
        }
      ],
      "name": "setValidador",
      "outputs": [],
      "stateMutability": "payable",
      "type": "function",
      "payable": true
    },
    {
      "inputs": [
        {
          "internalType": "uint256",
          "name": "_gMax",
          "type": "uint256"
        },
        {
          "internalType": "uint256",
          "name": "_gMin",
          "type": "uint256"
        },
        {
          "internalType": "uint256",
          "name": "_dp1",
          "type": "uint256"
        },
        {
          "internalType": "uint256",
          "name": "_dp2",
          "type": "uint256"
        }
      ],
      "name": "setMediador",
      "outputs": [],
      "stateMutability": "payable",
      "type": "function",
      "payable": true
    },
    {
      "inputs": [],
      "name": "getInstructors",
      "outputs": [
        {
          "internalType": "address payable[]",
          "name": "",
          "type": "address[]"
        }
      ],
      "stateMutability": "view",
      "type": "function",
      "constant": true
    },
    {
      "inputs": [],
      "name": "countParticipants",
      "outputs": [
        {
          "internalType": "uint256",
          "name": "",
          "type": "uint256"
        }
      ],
      "stateMutability": "view",
      "type": "function",
      "constant": true
    },
    {
      "inputs": [
        {
          "internalType": "address",
          "name": "ins",
          "type": "address"
        }
      ],
      "name": "getInstructor",
      "outputs": [
        {
          "internalType": "address",
          "name": "",
          "type": "address"
        },
        {
          "internalType": "uint256",
          "name": "",
          "type": "uint256"
        },
        {
          "internalType": "uint256",
          "name": "",
          "type": "uint256"
        },
        {
          "internalType": "uint256",
          "name": "",
          "type": "uint256"
        },
        {
          "internalType": "uint256",
          "name": "",
          "type": "uint256"
        },
        {
          "internalType": "uint256",
          "name": "",
          "type": "uint256"
        }
      ],
      "stateMutability": "view",
      "type": "function",
      "constant": true
    },
    {
      "inputs": [
        {
          "internalType": "uint256",
          "name": "_nArb",
          "type": "uint256"
        },
        {
          "internalType": "uint256",
          "name": "_nVal",
          "type": "uint256"
        },
        {
          "internalType": "uint256",
          "name": "_hArb",
          "type": "uint256"
        },
        {
          "internalType": "uint256",
          "name": "_hVal",
          "type": "uint256"
        }
      ],
      "name": "selectParticipants",
      "outputs": [
        {
          "internalType": "address payable[]",
          "name": "",
          "type": "address[]"
        }
      ],
      "stateMutability": "view",
      "type": "function",
      "constant": true
    },
    {
      "inputs": [
        {
          "internalType": "address payable",
          "name": "validador",
          "type": "address"
        },
        {
          "internalType": "address payable",
          "name": "mediador",
          "type": "address"
        }
      ],
      "name": "returnDeposito",
      "outputs": [],
      "stateMutability": "nonpayable",
      "type": "function"
    },
    {
      "inputs": [
        {
          "internalType": "address payable[]",
          "name": "dirs",
          "type": "address[]"
        }
      ],
      "name": "sendToVote",
      "outputs": [],
      "stateMutability": "nonpayable",
      "type": "function"
    }
  ],
  "bytecode": "0x608060405234801561001057600080fd5b506118ba806100206000396000f3fe6080604052600436106100e85760003560e01c80635eff7dae1161008a578063ce44cf6d11610059578063ce44cf6d14610646578063d10ac4fb14610757578063eacf598e146107bc578063fb429e2d1461082d576100e8565b80635eff7dae1461046f57806369236c2a146104db5780638f5b9b0a146105a05780639ff17d0514610605576100e8565b80631b8fc2f0116100c65780631b8fc2f01461027b5780631dbdadeb146102cc578063514367b0146103dd5780635c52bba714610444576100e8565b80630429e372146100ed578063062202691461018b5780630c18d63f14610239575b600080fd5b3480156100f957600080fd5b5061013c6004803603602081101561011057600080fd5b81019080803573ffffffffffffffffffffffffffffffffffffffff169060200190929190505050610879565b604051808773ffffffffffffffffffffffffffffffffffffffff168152602001868152602001858152602001848152602001838152602001828152602001965050505050505060405180910390f35b34801561019757600080fd5b506101e2600480360360808110156101ae57600080fd5b8101908080359060200190929190803590602001909291908035906020019092919080359060200190929190505050610a43565b6040518080602001828103825283818151815260200191508051906020019060200280838360005b8381101561022557808201518184015260208101905061020a565b505050509050019250505060405180910390f35b6102796004803603606081101561024f57600080fd5b81019080803590602001909291908035906020019092919080359060200190929190505050610dec565b005b34801561028757600080fd5b506102ca6004803603602081101561029e57600080fd5b81019080803573ffffffffffffffffffffffffffffffffffffffff169060200190929190505050611019565b005b3480156102d857600080fd5b5061031b600480360360208110156102ef57600080fd5b81019080803573ffffffffffffffffffffffffffffffffffffffff169060200190929190505050611074565b604051808973ffffffffffffffffffffffffffffffffffffffff16815260200188815260200187815260200186815260200185815260200184815260200183815260200180602001828103825283818151815260200191508051906020019080838360005b8381101561039b578082015181840152602081019050610380565b50505050905090810190601f1680156103c85780820380516001836020036101000a031916815260200191505b50995050505050505050505060405180910390f35b3480156103e957600080fd5b5061042c6004803603602081101561040057600080fd5b81019080803573ffffffffffffffffffffffffffffffffffffffff169060200190929190505050611174565b60405180821515815260200191505060405180910390f35b34801561045057600080fd5b50610459611194565b6040518082815260200191505060405180910390f35b34801561047b57600080fd5b506104846111a1565b6040518080602001828103825283818151815260200191508051906020019060200280838360005b838110156104c75780820151818401526020810190506104ac565b505050509050019250505060405180910390f35b3480156104e757600080fd5b5061059e600480360360208110156104fe57600080fd5b810190808035906020019064010000000081111561051b57600080fd5b82018360208201111561052d57600080fd5b8035906020019184602083028401116401000000008311171561054f57600080fd5b919080806020026020016040519081016040528093929190818152602001838360200280828437600081840152601f19601f82011690508083019250505050505050919291929050505061122f565b005b3480156105ac57600080fd5b506105d9600480360360208110156105c357600080fd5b8101908080359060200190929190505050611232565b604051808273ffffffffffffffffffffffffffffffffffffffff16815260200191505060405180910390f35b34801561061157600080fd5b5061061a61126e565b604051808273ffffffffffffffffffffffffffffffffffffffff16815260200191505060405180910390f35b34801561065257600080fd5b506106956004803603602081101561066957600080fd5b81019080803573ffffffffffffffffffffffffffffffffffffffff169060200190929190505050611294565b604051808973ffffffffffffffffffffffffffffffffffffffff16815260200188815260200187815260200186815260200185815260200184815260200183815260200180602001828103825283818151815260200191508051906020019080838360005b838110156107155780820151818401526020810190506106fa565b50505050905090810190601f1680156107425780820380516001836020036101000a031916815260200191505b50995050505050505050505060405180910390f35b34801561076357600080fd5b506107906004803603602081101561077a57600080fd5b8101908080359060200190929190505050611394565b604051808273ffffffffffffffffffffffffffffffffffffffff16815260200191505060405180910390f35b3480156107c857600080fd5b5061082b600480360360408110156107df57600080fd5b81019080803573ffffffffffffffffffffffffffffffffffffffff169060200190929190803573ffffffffffffffffffffffffffffffffffffffff1690602001909291905050506113d0565b005b6108776004803603608081101561084357600080fd5b8101908080359060200190929190803590602001909291908035906020019092919080359060200190929190505050611529565b005b6000806000806000806000808873ffffffffffffffffffffffffffffffffffffffff1673ffffffffffffffffffffffffffffffffffffffff16815260200190815260200160002060000160009054906101000a900473ffffffffffffffffffffffffffffffffffffffff166000808973ffffffffffffffffffffffffffffffffffffffff1673ffffffffffffffffffffffffffffffffffffffff168152602001908152602001600020600101546000808a73ffffffffffffffffffffffffffffffffffffffff1673ffffffffffffffffffffffffffffffffffffffff168152602001908152602001600020600201546000808b73ffffffffffffffffffffffffffffffffffffffff1673ffffffffffffffffffffffffffffffffffffffff168152602001908152602001600020600301546000808c73ffffffffffffffffffffffffffffffffffffffff1673ffffffffffffffffffffffffffffffffffffffff168152602001908152602001600020600401546000808d73ffffffffffffffffffffffffffffffffffffffff1673ffffffffffffffffffffffffffffffffffffffff1681526020019081526020016000206005015495509550955095509550955091939550919395565b606080600267ffffffffffffffff81118015610a5e57600080fd5b50604051908082528060200260200182016040528015610a8d5781602001602082028036833780820191505090505b50905060005b600180549050811015610c36578360008060018481548110610ab157fe5b9060005260206000200160009054906101000a900473ffffffffffffffffffffffffffffffffffffffff1673ffffffffffffffffffffffffffffffffffffffff1673ffffffffffffffffffffffffffffffffffffffff1681526020019081526020016000206001015410158015610ba057508360008060018481548110610b3457fe5b9060005260206000200160009054906101000a900473ffffffffffffffffffffffffffffffffffffffff1673ffffffffffffffffffffffffffffffffffffffff1673ffffffffffffffffffffffffffffffffffffffff1681526020019081526020016000206002015411155b15610c295760018181548110610bb257fe5b9060005260206000200160009054906101000a900473ffffffffffffffffffffffffffffffffffffffff1682600081518110610bea57fe5b602002602001019073ffffffffffffffffffffffffffffffffffffffff16908173ffffffffffffffffffffffffffffffffffffffff1681525050610c36565b8080600101915050610a93565b5060005b600380549050811015610ddf57846002600060038481548110610c5957fe5b9060005260206000200160009054906101000a900473ffffffffffffffffffffffffffffffffffffffff1673ffffffffffffffffffffffffffffffffffffffff1673ffffffffffffffffffffffffffffffffffffffff1681526020019081526020016000206001015410158015610d495750846002600060038481548110610cdd57fe5b9060005260206000200160009054906101000a900473ffffffffffffffffffffffffffffffffffffffff1673ffffffffffffffffffffffffffffffffffffffff1673ffffffffffffffffffffffffffffffffffffffff1681526020019081526020016000206002015411155b15610dd25760038181548110610d5b57fe5b9060005260206000200160009054906101000a900473ffffffffffffffffffffffffffffffffffffffff1682600181518110610d9357fe5b602002602001019073ffffffffffffffffffffffffffffffffffffffff16908173ffffffffffffffffffffffffffffffffffffffff1681525050610ddf565b8080600101915050610c3a565b5080915050949350505050565b6007831115610e63576040517f08c379a00000000000000000000000000000000000000000000000000000000081526004018080602001828103825260108152602001807f4e6f7420656e6f7567682065746865720000000000000000000000000000000081525060200191505060405180910390fd5b33600560006101000a81548173ffffffffffffffffffffffffffffffffffffffff021916908373ffffffffffffffffffffffffffffffffffffffff16021790555060008060003373ffffffffffffffffffffffffffffffffffffffff1673ffffffffffffffffffffffffffffffffffffffff1681526020019081526020016000209050338160000160006101000a81548173ffffffffffffffffffffffffffffffffffffffff021916908373ffffffffffffffffffffffffffffffffffffffff160217905550838160010181905550828160020181905550600081600301819055506040518060400160405280600981526020017f56616c696461646f720000000000000000000000000000000000000000000000815250816007019080519060200190610f929291906117e7565b5081816004018190555060008160050181905550600081600601819055506001339080600181540180825580915050600190039060005260206000200160009091909190916101000a81548173ffffffffffffffffffffffffffffffffffffffff021916908373ffffffffffffffffffffffffffffffffffffffff16021790555050505050565b6001600460008373ffffffffffffffffffffffffffffffffffffffff1673ffffffffffffffffffffffffffffffffffffffff16815260200190815260200160002060006101000a81548160ff02191690831515021790555050565b60006020528060005260406000206000915090508060000160009054906101000a900473ffffffffffffffffffffffffffffffffffffffff1690806001015490806002015490806003015490806004015490806005015490806006015490806007018054600181600116156101000203166002900480601f01602080910402602001604051908101604052809291908181526020018280546001816001161561010002031660029004801561116a5780601f1061113f5761010080835404028352916020019161116a565b820191906000526020600020905b81548152906001019060200180831161114d57829003601f168201915b5050505050905088565b60046020528060005260406000206000915054906101000a900460ff1681565b6000600180549050905090565b6060600180548060200260200160405190810160405280929190818152602001828054801561122557602002820191906000526020600020905b8160009054906101000a900473ffffffffffffffffffffffffffffffffffffffff1673ffffffffffffffffffffffffffffffffffffffff16815260200190600101908083116111db575b5050505050905090565b50565b6003818154811061123f57fe5b906000526020600020016000915054906101000a900473ffffffffffffffffffffffffffffffffffffffff1681565b600560009054906101000a900473ffffffffffffffffffffffffffffffffffffffff1681565b60026020528060005260406000206000915090508060000160009054906101000a900473ffffffffffffffffffffffffffffffffffffffff1690806001015490806002015490806003015490806004015490806005015490806006015490806007018054600181600116156101000203166002900480601f01602080910402602001604051908101604052809291908181526020018280546001816001161561010002031660029004801561138a5780601f1061135f5761010080835404028352916020019161138a565b820191906000526020600020905b81548152906001019060200180831161136d57829003601f168201915b5050505050905088565b600181815481106113a157fe5b906000526020600020016000915054906101000a900473ffffffffffffffffffffffffffffffffffffffff1681565b8173ffffffffffffffffffffffffffffffffffffffff166108fc6000808573ffffffffffffffffffffffffffffffffffffffff1673ffffffffffffffffffffffffffffffffffffffff168152602001908152602001600020600401549081150290604051600060405180830381858888f19350505050158015611457573d6000803e3d6000fd5b508073ffffffffffffffffffffffffffffffffffffffff166108fc600260008573ffffffffffffffffffffffffffffffffffffffff1673ffffffffffffffffffffffffffffffffffffffff16815260200190815260200160002060050154600260008673ffffffffffffffffffffffffffffffffffffffff1673ffffffffffffffffffffffffffffffffffffffff16815260200190815260200160002060040154019081150290604051600060405180830381858888f19350505050158015611524573d6000803e3d6000fd5b505050565b61153233611791565b6115a4576040517f08c379a00000000000000000000000000000000000000000000000000000000081526004018080602001828103825260168152602001807f4163636f756e74206e6f74206964656e7469666965640000000000000000000081525060200191505060405180910390fd5b600784111561161b576040517f08c379a00000000000000000000000000000000000000000000000000000000081526004018080602001828103825260108152602001807f4e6f7420656e6f7567682065746865720000000000000000000000000000000081525060200191505060405180910390fd5b6000600260003373ffffffffffffffffffffffffffffffffffffffff1673ffffffffffffffffffffffffffffffffffffffff1681526020019081526020016000209050338160000160006101000a81548173ffffffffffffffffffffffffffffffffffffffff021916908373ffffffffffffffffffffffffffffffffffffffff160217905550848160010181905550838160020181905550600081600301819055506040518060400160405280600881526020017f4d65646961646f7200000000000000000000000000000000000000000000000081525081600701908051906020019061170a9291906117e7565b50828160040181905550818160050181905550600081600601819055506003339080600181540180825580915050600190039060005260206000200160009091909190916101000a81548173ffffffffffffffffffffffffffffffffffffffff021916908373ffffffffffffffffffffffffffffffffffffffff1602179055505050505050565b6000600460008373ffffffffffffffffffffffffffffffffffffffff1673ffffffffffffffffffffffffffffffffffffffff16815260200190815260200160002060009054906101000a900460ff169050919050565b828054600181600116156101000203166002900490600052602060002090601f016020900481019282601f1061182857805160ff1916838001178555611856565b82800160010185558215611856579182015b8281111561185557825182559160200191906001019061183a565b5b5090506118639190611867565b5090565b5b80821115611880576000816000905550600101611868565b509056fea26469706673582212209e77663de97aa5ff72dd45d19b30e587cc4742ca8eecfef7c191b27b393cb89d64736f6c634300060c0033",
  "source": "pragma solidity >0.6.0;\n\nimport \"./AcuerdoInformal.sol\";\n\ncontract GestorAyV {\n\n    mapping(address => Participant) public validadoresMap;\n    address payable[] public validadoresAccts;\n    mapping(address => Participant) public mediadoresMap;\n    address payable[] public mediadoresAccts;\n    mapping (address => bool) public allowedAdresses;\n     address payable public addresTest;\n\n    struct Participant{\n        address addr;\n        uint gananciaMax;\n        uint gananciaMin;\n        uint prcgAciertos;\n        uint deposito1;\n        uint deposito2;\n        uint participaciones;\n        string typeParticipant;\n    }\n\n    function setAllowedAddress(address _addr) public{\n        allowedAdresses[_addr] = true;\n    }\n\n    function contains(address _addr) internal returns (bool){\n        return allowedAdresses[_addr];\n    }\n\n    /*function selectValidador(uint _nArb, uint _nVal, uint _hArb, uint _hVal) public  view returns(address){\n        address valToAdd;\n        for(uint i=0; i<validadoresAccts.length; i++){\n            if(validadoresMap[validadoresAccts[i]].gananciaMax <= _hVal && validadoresMap[validadoresAccts[i]].gananciaMin >= _hVal ){\n                valToAdd = validadoresAccts[i];\n                break;\n            }\n        }\n       //reordenar validadoresAccts en funcion de sus participaciones\n       return valToAdd;       \n    }\n\n    function selectMediador(uint _nArb, uint _nVal, uint _hArb, uint _hVal) public  view returns(address){\n        address valToAdd;\n        for(uint i=0; i<mediadoresAccts.length; i++){\n            if(mediadoresMap[mediadoresAccts[i]].gananciaMax >= _hArb && mediadoresMap[mediadoresAccts[i]].gananciaMin <= _hArb ){\n                valToAdd = mediadoresAccts[i];\n                break;\n            }\n        }\n       //reordenar validadoresAccts en funcion de sus participaciones\n       return valToAdd;       \n    }*/\n    function setValidador(uint _gMax, uint _gMin, uint _dp1) public payable{\n        //require(contains(msg.sender), 'Account not identified');\n        //require(msg.value == _dp1, 'Not enough ether');\n        require(_gMax <= 7, 'Not enough ether');\n        addresTest = msg.sender;\n        Participant storage participant = validadoresMap[msg.sender]; \n        participant.addr = msg.sender;\n        participant.gananciaMax = _gMax;\n        participant.gananciaMin = _gMin;\n        participant.prcgAciertos = 0;\n        participant.typeParticipant = 'Validador';\n        participant.deposito1 = _dp1;\n        participant.deposito2 = 0;\n        participant.participaciones = 0;\n        \n        validadoresAccts.push(msg.sender);\n    }\n    function setMediador(uint _gMax, uint _gMin, uint _dp1, uint _dp2) public payable{\n        require(contains(msg.sender), 'Account not identified');\n        //require(msg.value == _dp1 + _dp2, 'Not enough ether');\n        require(_gMax <= 7, 'Not enough ether');\n       \n        Participant storage participant = mediadoresMap[msg.sender]; \n        participant.addr = msg.sender;\n        participant.gananciaMax = _gMax;\n        participant.gananciaMin = _gMin;\n        participant.prcgAciertos = 0;\n        participant.typeParticipant = 'Mediador';\n        participant.deposito1 = _dp1;\n        participant.deposito2 = _dp2;\n        participant.participaciones = 0;\n        \n        mediadoresAccts.push(msg.sender);\n    }\n\n    function getInstructors() public view returns (address payable[] memory) {\n        return validadoresAccts;\n    }\n\n    function countParticipants() public view returns (uint) {\n        return validadoresAccts.length;\n    }\n\n    function getInstructor(address ins) public view returns (address, uint, uint, uint, uint, uint) {\n        return (    validadoresMap[ins].addr,\n                    validadoresMap[ins].gananciaMax, \n                    validadoresMap[ins].gananciaMin,\n                    validadoresMap[ins].prcgAciertos,\n                    validadoresMap[ins].deposito1, \n                    validadoresMap[ins].deposito2                  \n                );\n    }\n    function selectParticipants(uint _nArb, uint _nVal, uint _hArb, uint _hVal) public  view returns(address payable[] memory){\n        address payable[] memory dirsToAdd = new address payable[](2);\n        for(uint i=0; i<validadoresAccts.length; i++){\n            if(validadoresMap[validadoresAccts[i]].gananciaMax >= _hVal && validadoresMap[validadoresAccts[i]].gananciaMin <= _hVal ){\n                dirsToAdd[0] = validadoresAccts[i];\n                break;\n            }\n        }\n        for(uint i=0; i<mediadoresAccts.length; i++){\n            if(mediadoresMap[mediadoresAccts[i]].gananciaMax >= _hArb && mediadoresMap[mediadoresAccts[i]].gananciaMin <= _hArb ){\n                dirsToAdd[1] = mediadoresAccts[i];\n                break;\n            }\n        }\n       //reordenar validadoresAccts en funcion de sus participaciones\n       return dirsToAdd;       \n    }\n\n    function returnDeposito(/*address payable[] memory dirs*/ address payable validador, address payable  mediador) public{\n        /*for(uint i=0; i<dirs.length; i++){\n            if(validadoresMap[dirs[i]] != 0){\n                dirs[i].transfer(validadoresMap[dirs[i]].deposito1 + validadoresMap[dirs[i]].deposito2);\n            }else if(mediadoresMap[dirs[i]] != 0){\n                dirs[i].transfer(mediadoresMap[dirs[i]].deposito1 + mediadoresMap[dirs[i]].deposito2);\n            }\n        }*/\n        validador.transfer(validadoresMap[validador].deposito1);\n        mediador.transfer(mediadoresMap[validador].deposito1 + mediadoresMap[validador].deposito2);\n    }\n    \n\n    function sendToVote(address payable[] memory dirs) public{\n\n    }\n    \n\n}\n\n",
  "sourcePath": "/home/edgar/blockchain/SmartContractDemo/TFM/contracts/GestorAyV.sol",
  "compiler": {
    "name": "solc",
    "version": "0.6.12+commit.27d51765.Emscripten.clang"
  },
  "schemaVersion": "3.0.23",
  "updatedAt": "2020-08-16T18:23:28.672Z",
  "networkType": "ethereum",
  "devdoc": {
    "kind": "dev",
    "methods": {},
    "version": 1
  },
  "userdoc": {
    "kind": "user",
    "methods": {},
    "version": 1
  }
}